{
  "_format": "hh-sol-artifact-1",
  "contractName": "OPECHO",
  "sourceName": "src/contracts/OPECHO.sol",
  "abi": [
    {
      "inputs": [
        {
          "internalType": "address",
          "name": "_development",
          "type": "address"
        },
        {
          "internalType": "address",
          "name": "_trading",
          "type": "address"
        }
      ],
      "stateMutability": "nonpayable",
      "type": "constructor"
    },
    {
      "inputs": [
        {
          "internalType": "address",
          "name": "spender",
          "type": "address"
        },
        {
          "internalType": "uint256",
          "name": "allowance",
          "type": "uint256"
        },
        {
          "internalType": "uint256",
          "name": "needed",
          "type": "uint256"
        }
      ],
      "name": "ERC20InsufficientAllowance",
      "type": "error"
    },
    {
      "inputs": [
        {
          "internalType": "address",
          "name": "sender",
          "type": "address"
        },
        {
          "internalType": "uint256",
          "name": "balance",
          "type": "uint256"
        },
        {
          "internalType": "uint256",
          "name": "needed",
          "type": "uint256"
        }
      ],
      "name": "ERC20InsufficientBalance",
      "type": "error"
    },
    {
      "inputs": [
        {
          "internalType": "address",
          "name": "approver",
          "type": "address"
        }
      ],
      "name": "ERC20InvalidApprover",
      "type": "error"
    },
    {
      "inputs": [
        {
          "internalType": "address",
          "name": "receiver",
          "type": "address"
        }
      ],
      "name": "ERC20InvalidReceiver",
      "type": "error"
    },
    {
      "inputs": [
        {
          "internalType": "address",
          "name": "sender",
          "type": "address"
        }
      ],
      "name": "ERC20InvalidSender",
      "type": "error"
    },
    {
      "inputs": [
        {
          "internalType": "address",
          "name": "spender",
          "type": "address"
        }
      ],
      "name": "ERC20InvalidSpender",
      "type": "error"
    },
    {
      "inputs": [],
      "name": "EnforcedPause",
      "type": "error"
    },
    {
      "inputs": [],
      "name": "ExpectedPause",
      "type": "error"
    },
    {
      "inputs": [
        {
          "internalType": "address",
          "name": "owner",
          "type": "address"
        }
      ],
      "name": "OwnableInvalidOwner",
      "type": "error"
    },
    {
      "inputs": [
        {
          "internalType": "address",
          "name": "account",
          "type": "address"
        }
      ],
      "name": "OwnableUnauthorizedAccount",
      "type": "error"
    },
    {
      "anonymous": false,
      "inputs": [
        {
          "indexed": true,
          "internalType": "address",
          "name": "owner",
          "type": "address"
        },
        {
          "indexed": true,
          "internalType": "address",
          "name": "spender",
          "type": "address"
        },
        {
          "indexed": false,
          "internalType": "uint256",
          "name": "value",
          "type": "uint256"
        }
      ],
      "name": "Approval",
      "type": "event"
    },
    {
      "anonymous": false,
      "inputs": [
        {
          "indexed": false,
          "internalType": "uint256",
          "name": "remaining",
          "type": "uint256"
        }
      ],
      "name": "InsufficientRewardsPool",
      "type": "event"
    },
    {
      "anonymous": false,
      "inputs": [
        {
          "indexed": true,
          "internalType": "address",
          "name": "previousOwner",
          "type": "address"
        },
        {
          "indexed": true,
          "internalType": "address",
          "name": "newOwner",
          "type": "address"
        }
      ],
      "name": "OwnershipTransferred",
      "type": "event"
    },
    {
      "anonymous": false,
      "inputs": [
        {
          "indexed": false,
          "internalType": "address",
          "name": "account",
          "type": "address"
        }
      ],
      "name": "Paused",
      "type": "event"
    },
    {
      "anonymous": false,
      "inputs": [
        {
          "indexed": false,
          "internalType": "uint256",
          "name": "newCooldown",
          "type": "uint256"
        }
      ],
      "name": "RewardCooldownUpdated",
      "type": "event"
    },
    {
      "anonymous": false,
      "inputs": [
        {
          "indexed": true,
          "internalType": "address",
          "name": "user",
          "type": "address"
        },
        {
          "indexed": false,
          "internalType": "uint256",
          "name": "amount",
          "type": "uint256"
        },
        {
          "indexed": false,
          "internalType": "uint256",
          "name": "timestamp",
          "type": "uint256"
        }
      ],
      "name": "RewardDistributed",
      "type": "event"
    },
    {
      "anonymous": false,
      "inputs": [
        {
          "indexed": true,
          "internalType": "address",
          "name": "from",
          "type": "address"
        },
        {
          "indexed": true,
          "internalType": "address",
          "name": "to",
          "type": "address"
        },
        {
          "indexed": false,
          "internalType": "uint256",
          "name": "value",
          "type": "uint256"
        }
      ],
      "name": "Transfer",
      "type": "event"
    },
    {
      "anonymous": false,
      "inputs": [
        {
          "indexed": false,
          "internalType": "address",
          "name": "account",
          "type": "address"
        }
      ],
      "name": "Unpaused",
      "type": "event"
    },
    {
      "inputs": [],
      "name": "INITIAL_SUPPLY",
      "outputs": [
        {
          "internalType": "uint256",
          "name": "",
          "type": "uint256"
        }
      ],
      "stateMutability": "view",
      "type": "function"
    },
    {
      "inputs": [],
      "name": "MAX_REWARDS",
      "outputs": [
        {
          "internalType": "uint256",
          "name": "",
          "type": "uint256"
        }
      ],
      "stateMutability": "view",
      "type": "function"
    },
    {
      "inputs": [],
      "name": "REWARD_AMOUNT",
      "outputs": [
        {
          "internalType": "uint256",
          "name": "",
          "type": "uint256"
        }
      ],
      "stateMutability": "view",
      "type": "function"
    },
    {
      "inputs": [],
      "name": "REWARD_COOLDOWN",
      "outputs": [
        {
          "internalType": "uint256",
          "name": "",
          "type": "uint256"
        }
      ],
      "stateMutability": "view",
      "type": "function"
    },
    {
      "inputs": [
        {
          "internalType": "address",
          "name": "owner",
          "type": "address"
        },
        {
          "internalType": "address",
          "name": "spender",
          "type": "address"
        }
      ],
      "name": "allowance",
      "outputs": [
        {
          "internalType": "uint256",
          "name": "",
          "type": "uint256"
        }
      ],
      "stateMutability": "view",
      "type": "function"
    },
    {
      "inputs": [
        {
          "internalType": "address",
          "name": "spender",
          "type": "address"
        },
        {
          "internalType": "uint256",
          "name": "value",
          "type": "uint256"
        }
      ],
      "name": "approve",
      "outputs": [
        {
          "internalType": "bool",
          "name": "",
          "type": "bool"
        }
      ],
      "stateMutability": "nonpayable",
      "type": "function"
    },
    {
      "inputs": [
        {
          "internalType": "address",
          "name": "account",
          "type": "address"
        }
      ],
      "name": "balanceOf",
      "outputs": [
        {
          "internalType": "uint256",
          "name": "",
          "type": "uint256"
        }
      ],
      "stateMutability": "view",
      "type": "function"
    },
    {
      "inputs": [],
      "name": "decimals",
      "outputs": [
        {
          "internalType": "uint8",
          "name": "",
          "type": "uint8"
        }
      ],
      "stateMutability": "view",
      "type": "function"
    },
    {
      "inputs": [],
      "name": "development",
      "outputs": [
        {
          "internalType": "address",
          "name": "",
          "type": "address"
        }
      ],
      "stateMutability": "view",
      "type": "function"
    },
    {
      "inputs": [],
      "name": "getRemainingRewards",
      "outputs": [
        {
          "internalType": "uint256",
          "name": "",
          "type": "uint256"
        }
      ],
      "stateMutability": "view",
      "type": "function"
    },
    {
      "inputs": [],
      "name": "getRewardsPoolBalance",
      "outputs": [
        {
          "internalType": "uint256",
          "name": "",
          "type": "uint256"
        }
      ],
      "stateMutability": "view",
      "type": "function"
    },
    {
      "inputs": [
        {
          "internalType": "address",
          "name": "user",
          "type": "address"
        }
      ],
      "name": "getTimeUntilNextReward",
      "outputs": [
        {
          "internalType": "uint256",
          "name": "",
          "type": "uint256"
        }
      ],
      "stateMutability": "view",
      "type": "function"
    },
    {
      "inputs": [
        {
          "internalType": "address",
          "name": "user",
          "type": "address"
        }
      ],
      "name": "isEligibleForReward",
      "outputs": [
        {
          "internalType": "bool",
          "name": "",
          "type": "bool"
        }
      ],
      "stateMutability": "view",
      "type": "function"
    },
    {
      "inputs": [],
      "name": "lastRewardTimestamp",
      "outputs": [
        {
          "internalType": "uint256",
          "name": "",
          "type": "uint256"
        }
      ],
      "stateMutability": "view",
      "type": "function"
    },
    {
      "inputs": [],
      "name": "name",
      "outputs": [
        {
          "internalType": "string",
          "name": "",
          "type": "string"
        }
      ],
      "stateMutability": "view",
      "type": "function"
    },
    {
      "inputs": [],
      "name": "owner",
      "outputs": [
        {
          "internalType": "address",
          "name": "",
          "type": "address"
        }
      ],
      "stateMutability": "view",
      "type": "function"
    },
    {
      "inputs": [],
      "name": "pause",
      "outputs": [],
      "stateMutability": "nonpayable",
      "type": "function"
    },
    {
      "inputs": [],
      "name": "paused",
      "outputs": [
        {
          "internalType": "bool",
          "name": "",
          "type": "bool"
        }
      ],
      "stateMutability": "view",
      "type": "function"
    },
    {
      "inputs": [],
      "name": "renounceOwnership",
      "outputs": [],
      "stateMutability": "nonpayable",
      "type": "function"
    },
    {
      "inputs": [
        {
          "internalType": "address",
          "name": "user",
          "type": "address"
        }
      ],
      "name": "rewardUser",
      "outputs": [],
      "stateMutability": "nonpayable",
      "type": "function"
    },
    {
      "inputs": [],
      "name": "rewardsDistributed",
      "outputs": [
        {
          "internalType": "uint256",
          "name": "",
          "type": "uint256"
        }
      ],
      "stateMutability": "view",
      "type": "function"
    },
    {
      "inputs": [],
      "name": "rewardsPool",
      "outputs": [
        {
          "internalType": "address",
          "name": "",
          "type": "address"
        }
      ],
      "stateMutability": "view",
      "type": "function"
    },
    {
      "inputs": [],
      "name": "symbol",
      "outputs": [
        {
          "internalType": "string",
          "name": "",
          "type": "string"
        }
      ],
      "stateMutability": "view",
      "type": "function"
    },
    {
      "inputs": [],
      "name": "totalSupply",
      "outputs": [
        {
          "internalType": "uint256",
          "name": "",
          "type": "uint256"
        }
      ],
      "stateMutability": "view",
      "type": "function"
    },
    {
      "inputs": [],
      "name": "trading",
      "outputs": [
        {
          "internalType": "address",
          "name": "",
          "type": "address"
        }
      ],
      "stateMutability": "view",
      "type": "function"
    },
    {
      "inputs": [
        {
          "internalType": "address",
          "name": "to",
          "type": "address"
        },
        {
          "internalType": "uint256",
          "name": "value",
          "type": "uint256"
        }
      ],
      "name": "transfer",
      "outputs": [
        {
          "internalType": "bool",
          "name": "",
          "type": "bool"
        }
      ],
      "stateMutability": "nonpayable",
      "type": "function"
    },
    {
      "inputs": [
        {
          "internalType": "address",
          "name": "from",
          "type": "address"
        },
        {
          "internalType": "address",
          "name": "to",
          "type": "address"
        },
        {
          "internalType": "uint256",
          "name": "value",
          "type": "uint256"
        }
      ],
      "name": "transferFrom",
      "outputs": [
        {
          "internalType": "bool",
          "name": "",
          "type": "bool"
        }
      ],
      "stateMutability": "nonpayable",
      "type": "function"
    },
    {
      "inputs": [
        {
          "internalType": "address",
          "name": "newOwner",
          "type": "address"
        }
      ],
      "name": "transferOwnership",
      "outputs": [],
      "stateMutability": "nonpayable",
      "type": "function"
    },
    {
      "inputs": [],
      "name": "unpause",
      "outputs": [],
      "stateMutability": "nonpayable",
      "type": "function"
    },
    {
      "inputs": [
        {
          "internalType": "address",
          "name": "",
          "type": "address"
        }
      ],
      "name": "userRewards",
      "outputs": [
        {
          "internalType": "uint256",
          "name": "",
          "type": "uint256"
        }
      ],
      "stateMutability": "view",
      "type": "function"
    }
  ],
  "bytecode": "0x60e06040523480156200001157600080fd5b5060405162002a5c38038062002a5c83398181016040528101906200003791906200074d565b336040518060400160405280600981526020017f4f70656e204563686f00000000000000000000000000000000000000000000008152506040518060400160405280600681526020017f4f504543484f00000000000000000000000000000000000000000000000000008152508160039081620000b5919062000a0e565b508060049081620000c7919062000a0e565b505050600073ffffffffffffffffffffffffffffffffffffffff168173ffffffffffffffffffffffffffffffffffffffff16036200013f5760006040517f1e4fbdf700000000000000000000000000000000000000000000000000000000815260040162000136919062000b06565b60405180910390fd5b62000150816200036060201b60201c565b506000600560146101000a81548160ff021916908315150217905550600073ffffffffffffffffffffffffffffffffffffffff168273ffffffffffffffffffffffffffffffffffffffff1603620001de576040517f08c379a0000000000000000000000000000000000000000000000000000000008152600401620001d59062000b84565b60405180910390fd5b600073ffffffffffffffffffffffffffffffffffffffff168173ffffffffffffffffffffffffffffffffffffffff160362000250576040517f08c379a0000000000000000000000000000000000000000000000000000000008152600401620002479062000bf6565b60405180910390fd5b3073ffffffffffffffffffffffffffffffffffffffff1660808173ffffffffffffffffffffffffffffffffffffffff16815250508173ffffffffffffffffffffffffffffffffffffffff1660a08173ffffffffffffffffffffffffffffffffffffffff16815250508073ffffffffffffffffffffffffffffffffffffffff1660c08173ffffffffffffffffffffffffffffffffffffffff16815250506200030b6080516a39e7139a8c08fa060000006200042660201b60201c565b6200032a60a0516a084595161401484a0000006200042660201b60201c565b6200034960c0516a108b2a2c280290940000006200042660201b60201c565b600060068190555042600881905550505062000ced565b6000600560009054906101000a900473ffffffffffffffffffffffffffffffffffffffff16905081600560006101000a81548173ffffffffffffffffffffffffffffffffffffffff021916908373ffffffffffffffffffffffffffffffffffffffff1602179055508173ffffffffffffffffffffffffffffffffffffffff168173ffffffffffffffffffffffffffffffffffffffff167f8be0079c531659141344cd1fd0a4f28419497f9722a3daafe3b4186f6b6457e060405160405180910390a35050565b600073ffffffffffffffffffffffffffffffffffffffff168273ffffffffffffffffffffffffffffffffffffffff16036200049b5760006040517fec442f0500000000000000000000000000000000000000000000000000000000815260040162000492919062000b06565b60405180910390fd5b620004af60008383620004b360201b60201c565b5050565b600073ffffffffffffffffffffffffffffffffffffffff168373ffffffffffffffffffffffffffffffffffffffff160362000509578060026000828254620004fc919062000c47565b92505081905550620005df565b60008060008573ffffffffffffffffffffffffffffffffffffffff1673ffffffffffffffffffffffffffffffffffffffff1681526020019081526020016000205490508181101562000598578381836040517fe450d38c0000000000000000000000000000000000000000000000000000000081526004016200058f9392919062000c93565b60405180910390fd5b8181036000808673ffffffffffffffffffffffffffffffffffffffff1673ffffffffffffffffffffffffffffffffffffffff16815260200190815260200160002081905550505b600073ffffffffffffffffffffffffffffffffffffffff168273ffffffffffffffffffffffffffffffffffffffff16036200062a578060026000828254039250508190555062000677565b806000808473ffffffffffffffffffffffffffffffffffffffff1673ffffffffffffffffffffffffffffffffffffffff168152602001908152602001600020600082825401925050819055505b8173ffffffffffffffffffffffffffffffffffffffff168373ffffffffffffffffffffffffffffffffffffffff167fddf252ad1be2c89b69c2b068fc378daa952ba7f163c4a11628f55a4df523b3ef83604051620006d6919062000cd0565b60405180910390a3505050565b600080fd5b600073ffffffffffffffffffffffffffffffffffffffff82169050919050565b60006200071582620006e8565b9050919050565b620007278162000708565b81146200073357600080fd5b50565b60008151905062000747816200071c565b92915050565b60008060408385031215620007675762000766620006e3565b5b6000620007778582860162000736565b92505060206200078a8582860162000736565b9150509250929050565b600081519050919050565b7f4e487b7100000000000000000000000000000000000000000000000000000000600052604160045260246000fd5b7f4e487b7100000000000000000000000000000000000000000000000000000000600052602260045260246000fd5b600060028204905060018216806200081657607f821691505b6020821081036200082c576200082b620007ce565b5b50919050565b60008190508160005260206000209050919050565b60006020601f8301049050919050565b600082821b905092915050565b600060088302620008967fffffffffffffffffffffffffffffffffffffffffffffffffffffffffffffffff8262000857565b620008a2868362000857565b95508019841693508086168417925050509392505050565b6000819050919050565b6000819050919050565b6000620008ef620008e9620008e384620008ba565b620008c4565b620008ba565b9050919050565b6000819050919050565b6200090b83620008ce565b620009236200091a82620008f6565b84845462000864565b825550505050565b600090565b6200093a6200092b565b6200094781848462000900565b505050565b5b818110156200096f576200096360008262000930565b6001810190506200094d565b5050565b601f821115620009be57620009888162000832565b620009938462000847565b81016020851015620009a3578190505b620009bb620009b28562000847565b8301826200094c565b50505b505050565b600082821c905092915050565b6000620009e360001984600802620009c3565b1980831691505092915050565b6000620009fe8383620009d0565b9150826002028217905092915050565b62000a198262000794565b67ffffffffffffffff81111562000a355762000a346200079f565b5b62000a418254620007fd565b62000a4e82828562000973565b600060209050601f83116001811462000a86576000841562000a71578287015190505b62000a7d8582620009f0565b86555062000aed565b601f19841662000a968662000832565b60005b8281101562000ac05784890151825560018201915060208501945060208101905062000a99565b8683101562000ae0578489015162000adc601f891682620009d0565b8355505b6001600288020188555050505b505050505050565b62000b008162000708565b82525050565b600060208201905062000b1d600083018462000af5565b92915050565b600082825260208201905092915050565b7f496e76616c696420646576656c6f706d656e7420616464726573730000000000600082015250565b600062000b6c601b8362000b23565b915062000b798262000b34565b602082019050919050565b6000602082019050818103600083015262000b9f8162000b5d565b9050919050565b7f496e76616c69642074726164696e672061646472657373000000000000000000600082015250565b600062000bde60178362000b23565b915062000beb8262000ba6565b602082019050919050565b6000602082019050818103600083015262000c118162000bcf565b9050919050565b7f4e487b7100000000000000000000000000000000000000000000000000000000600052601160045260246000fd5b600062000c5482620008ba565b915062000c6183620008ba565b925082820190508082111562000c7c5762000c7b62000c18565b5b92915050565b62000c8d81620008ba565b82525050565b600060608201905062000caa600083018662000af5565b62000cb9602083018562000c82565b62000cc8604083018462000c82565b949350505050565b600060208201905062000ce7600083018462000c82565b92915050565b60805160a05160c051611d2a62000d326000396000610db0015260006107db0152600081816105b501528181610a4901528181610abf0152610c5a0152611d2a6000f3fe608060405234801561001057600080fd5b50600436106101da5760003560e01c80638456cb5911610104578063c946e5dc116100a2578063ec44acf211610071578063ec44acf21461053d578063f2fde38b1461055b578063f8077fae14610577578063fb5478b314610595576101da565b8063c946e5dc146104a1578063cf849442146104bf578063d707c13a146104dd578063dd62ed3e1461050d576101da565b80639c1454d4116100de5780639c1454d414610419578063a6afd7db14610437578063a9059cbb14610453578063adf5510114610483576101da565b80638456cb59146103d35780638da5cb5b146103dd57806395d89b41146103fb576101da565b8063313ce5671161017c578063715018a61161014b578063715018a61461035d57806371d4c2551461036757806374cf90ee146103975780637b929c27146103b5576101da565b8063313ce567146102e75780633f4ba83a146103055780635c975abb1461030f57806370a082311461032d576101da565b8063095ea7b3116101b8578063095ea7b31461024b57806318160ddd1461027b57806323b872dd146102995780632ff2e9dc146102c9576101da565b80630359fea9146101df5780630660f1e8146101fd57806306fdde031461022d575b600080fd5b6101e76105b3565b6040516101f491906116e0565b60405180910390f35b6102176004803603810190610212919061172c565b6105d7565b6040516102249190611772565b60405180910390f35b6102356105ef565b604051610242919061181d565b60405180910390f35b6102656004803603810190610260919061186b565b610681565b60405161027291906118c6565b60405180910390f35b6102836106a4565b6040516102909190611772565b60405180910390f35b6102b360048036038101906102ae91906118e1565b6106ae565b6040516102c091906118c6565b60405180910390f35b6102d16106dd565b6040516102de9190611772565b60405180910390f35b6102ef6106ec565b6040516102fc9190611950565b60405180910390f35b61030d6106f5565b005b610317610707565b60405161032491906118c6565b60405180910390f35b6103476004803603810190610342919061172c565b61071e565b6040516103549190611772565b60405180910390f35b610365610766565b005b610381600480360381019061037c919061172c565b61077a565b60405161038e91906118c6565b60405180910390f35b61039f6107d3565b6040516103ac9190611772565b60405180910390f35b6103bd6107d9565b6040516103ca91906116e0565b60405180910390f35b6103db6107fd565b005b6103e561080f565b6040516103f291906116e0565b60405180910390f35b610403610839565b604051610410919061181d565b60405180910390f35b6104216108cb565b60405161042e9190611772565b60405180910390f35b610451600480360381019061044c919061172c565b6108d1565b005b61046d6004803603810190610468919061186b565b610c30565b60405161047a91906118c6565b60405180910390f35b61048b610c53565b6040516104989190611772565b60405180910390f35b6104a9610c83565b6040516104b69190611772565b60405180910390f35b6104c7610ca3565b6040516104d49190611772565b60405180910390f35b6104f760048036038101906104f2919061172c565b610caf565b6040516105049190611772565b60405180910390f35b6105276004803603810190610522919061196b565b610d27565b6040516105349190611772565b60405180910390f35b610545610dae565b60405161055291906116e0565b60405180910390f35b6105756004803603810190610570919061172c565b610dd2565b005b61057f610e58565b60405161058c9190611772565b60405180910390f35b61059d610e5e565b6040516105aa9190611772565b60405180910390f35b7f000000000000000000000000000000000000000000000000000000000000000081565b60076020528060005260406000206000915090505481565b6060600380546105fe906119da565b80601f016020809104026020016040519081016040528092919081815260200182805461062a906119da565b80156106775780601f1061064c57610100808354040283529160200191610677565b820191906000526020600020905b81548152906001019060200180831161065a57829003601f168201915b5050505050905090565b60008061068c610e6d565b9050610699818585610e75565b600191505092915050565b6000600254905090565b6000806106b9610e6d565b90506106c6858285610e87565b6106d1858585610f1b565b60019150509392505050565b6a52b7d2dcc80cd2e400000081565b60006012905090565b6106fd61100f565b610705611096565b565b6000600560149054906101000a900460ff16905090565b60008060008373ffffffffffffffffffffffffffffffffffffffff1673ffffffffffffffffffffffffffffffffffffffff168152602001908152602001600020549050919050565b61076e61100f565b61077860006110f9565b565b6000610e10600760008473ffffffffffffffffffffffffffffffffffffffff1673ffffffffffffffffffffffffffffffffffffffff168152602001908152602001600020546107c99190611a3a565b4210159050919050565b610e1081565b7f000000000000000000000000000000000000000000000000000000000000000081565b61080561100f565b61080d6111bf565b565b6000600560009054906101000a900473ffffffffffffffffffffffffffffffffffffffff16905090565b606060048054610848906119da565b80601f0160208091040260200160405190810160405280929190818152602001828054610874906119da565b80156108c15780601f10610896576101008083540402835291602001916108c1565b820191906000526020600020905b8154815290600101906020018083116108a457829003601f168201915b5050505050905090565b60065481565b6108d961100f565b6108e1611222565b600073ffffffffffffffffffffffffffffffffffffffff168173ffffffffffffffffffffffffffffffffffffffff1603610950576040517f08c379a000000000000000000000000000000000000000000000000000000000815260040161094790611aba565b60405180910390fd5b6a39e7139a8c08fa06000000674563918244f400006006546109729190611a3a565b11156109b3576040517f08c379a00000000000000000000000000000000000000000000000000000000081526004016109aa90611b26565b60405180910390fd5b610e10600760008373ffffffffffffffffffffffffffffffffffffffff1673ffffffffffffffffffffffffffffffffffffffff16815260200190815260200160002054610a009190611a3a565b421015610a42576040517f08c379a0000000000000000000000000000000000000000000000000000000008152600401610a3990611b92565b60405180910390fd5b6000610a6d7f000000000000000000000000000000000000000000000000000000000000000061071e565b9050674563918244f40000811015610aba576040517f08c379a0000000000000000000000000000000000000000000000000000000008152600401610ab190611bfe565b60405180910390fd5b610aed7f000000000000000000000000000000000000000000000000000000000000000083674563918244f40000610f1b565b674563918244f4000060066000828254610b079190611a3a565b9250508190555042600760008473ffffffffffffffffffffffffffffffffffffffff1673ffffffffffffffffffffffffffffffffffffffff16815260200190815260200160002081905550426008819055508173ffffffffffffffffffffffffffffffffffffffff167f53118bff2fb56701752f5bf54053d24fb83cec92f9f6ce664b90c38a2991caa4674563918244f4000042604051610ba9929190611c1e565b60405180910390a26103e8674563918244f40000610bc79190611c47565b674563918244f4000082610bdb9190611c89565b1015610c2c577f6ab267aae8e36d35e7923f4613fc3efd6515c7230fbcb5308535a1988a008208674563918244f4000082610c169190611c89565b604051610c239190611772565b60405180910390a15b5050565b600080610c3b610e6d565b9050610c48818585610f1b565b600191505092915050565b6000610c7e7f000000000000000000000000000000000000000000000000000000000000000061071e565b905090565b60006006546a39e7139a8c08fa06000000610c9e9190611c89565b905090565b674563918244f4000081565b600080610e10600760008573ffffffffffffffffffffffffffffffffffffffff1673ffffffffffffffffffffffffffffffffffffffff16815260200190815260200160002054610cff9190611a3a565b9050804210610d12576000915050610d22565b4281610d1e9190611c89565b9150505b919050565b6000600160008473ffffffffffffffffffffffffffffffffffffffff1673ffffffffffffffffffffffffffffffffffffffff16815260200190815260200160002060008373ffffffffffffffffffffffffffffffffffffffff1673ffffffffffffffffffffffffffffffffffffffff16815260200190815260200160002054905092915050565b7f000000000000000000000000000000000000000000000000000000000000000081565b610dda61100f565b600073ffffffffffffffffffffffffffffffffffffffff168173ffffffffffffffffffffffffffffffffffffffff1603610e4c5760006040517f1e4fbdf7000000000000000000000000000000000000000000000000000000008152600401610e4391906116e0565b60405180910390fd5b610e55816110f9565b50565b60085481565b6a39e7139a8c08fa0600000081565b600033905090565b610e828383836001611263565b505050565b6000610e938484610d27565b90507fffffffffffffffffffffffffffffffffffffffffffffffffffffffffffffffff8114610f155781811015610f05578281836040517ffb8f41b2000000000000000000000000000000000000000000000000000000008152600401610efc93929190611cbd565b60405180910390fd5b610f1484848484036000611263565b5b50505050565b600073ffffffffffffffffffffffffffffffffffffffff168373ffffffffffffffffffffffffffffffffffffffff1603610f8d5760006040517f96c6fd1e000000000000000000000000000000000000000000000000000000008152600401610f8491906116e0565b60405180910390fd5b600073ffffffffffffffffffffffffffffffffffffffff168273ffffffffffffffffffffffffffffffffffffffff1603610fff5760006040517fec442f05000000000000000000000000000000000000000000000000000000008152600401610ff691906116e0565b60405180910390fd5b61100a83838361143a565b505050565b611017610e6d565b73ffffffffffffffffffffffffffffffffffffffff1661103561080f565b73ffffffffffffffffffffffffffffffffffffffff161461109457611058610e6d565b6040517f118cdaa700000000000000000000000000000000000000000000000000000000815260040161108b91906116e0565b60405180910390fd5b565b61109e61165f565b6000600560146101000a81548160ff0219169083151502179055507f5db9ee0a495bf2e6ff9c91a7834c1ba4fdd244a5e8aa4e537bd38aeae4b073aa6110e2610e6d565b6040516110ef91906116e0565b60405180910390a1565b6000600560009054906101000a900473ffffffffffffffffffffffffffffffffffffffff16905081600560006101000a81548173ffffffffffffffffffffffffffffffffffffffff021916908373ffffffffffffffffffffffffffffffffffffffff1602179055508173ffffffffffffffffffffffffffffffffffffffff168173ffffffffffffffffffffffffffffffffffffffff167f8be0079c531659141344cd1fd0a4f28419497f9722a3daafe3b4186f6b6457e060405160405180910390a35050565b6111c7611222565b6001600560146101000a81548160ff0219169083151502179055507f62e78cea01bee320cd4e420270b5ea74000d11b0c9f74754ebdbfc544b05a25861120b610e6d565b60405161121891906116e0565b60405180910390a1565b61122a610707565b15611261576040517fd93c066500000000000000000000000000000000000000000000000000000000815260040160405180910390fd5b565b600073ffffffffffffffffffffffffffffffffffffffff168473ffffffffffffffffffffffffffffffffffffffff16036112d55760006040517fe602df050000000000000000000000000000000000000000000000000000000081526004016112cc91906116e0565b60405180910390fd5b600073ffffffffffffffffffffffffffffffffffffffff168373ffffffffffffffffffffffffffffffffffffffff16036113475760006040517f94280d6200000000000000000000000000000000000000000000000000000000815260040161133e91906116e0565b60405180910390fd5b81600160008673ffffffffffffffffffffffffffffffffffffffff1673ffffffffffffffffffffffffffffffffffffffff16815260200190815260200160002060008573ffffffffffffffffffffffffffffffffffffffff1673ffffffffffffffffffffffffffffffffffffffff168152602001908152602001600020819055508015611434578273ffffffffffffffffffffffffffffffffffffffff168473ffffffffffffffffffffffffffffffffffffffff167f8c5be1e5ebec7d5bd14f71427d1e84f3dd0314c0f7b2291e5b200ac8c7c3b9258460405161142b9190611772565b60405180910390a35b50505050565b600073ffffffffffffffffffffffffffffffffffffffff168373ffffffffffffffffffffffffffffffffffffffff160361148c5780600260008282546114809190611a3a565b9250508190555061155f565b60008060008573ffffffffffffffffffffffffffffffffffffffff1673ffffffffffffffffffffffffffffffffffffffff16815260200190815260200160002054905081811015611518578381836040517fe450d38c00000000000000000000000000000000000000000000000000000000815260040161150f93929190611cbd565b60405180910390fd5b8181036000808673ffffffffffffffffffffffffffffffffffffffff1673ffffffffffffffffffffffffffffffffffffffff16815260200190815260200160002081905550505b600073ffffffffffffffffffffffffffffffffffffffff168273ffffffffffffffffffffffffffffffffffffffff16036115a857806002600082825403925050819055506115f5565b806000808473ffffffffffffffffffffffffffffffffffffffff1673ffffffffffffffffffffffffffffffffffffffff168152602001908152602001600020600082825401925050819055505b8173ffffffffffffffffffffffffffffffffffffffff168373ffffffffffffffffffffffffffffffffffffffff167fddf252ad1be2c89b69c2b068fc378daa952ba7f163c4a11628f55a4df523b3ef836040516116529190611772565b60405180910390a3505050565b611667610707565b61169d576040517f8dfc202b00000000000000000000000000000000000000000000000000000000815260040160405180910390fd5b565b600073ffffffffffffffffffffffffffffffffffffffff82169050919050565b60006116ca8261169f565b9050919050565b6116da816116bf565b82525050565b60006020820190506116f560008301846116d1565b92915050565b600080fd5b611709816116bf565b811461171457600080fd5b50565b60008135905061172681611700565b92915050565b600060208284031215611742576117416116fb565b5b600061175084828501611717565b91505092915050565b6000819050919050565b61176c81611759565b82525050565b60006020820190506117876000830184611763565b92915050565b600081519050919050565b600082825260208201905092915050565b60005b838110156117c75780820151818401526020810190506117ac565b60008484015250505050565b6000601f19601f8301169050919050565b60006117ef8261178d565b6117f98185611798565b93506118098185602086016117a9565b611812816117d3565b840191505092915050565b6000602082019050818103600083015261183781846117e4565b905092915050565b61184881611759565b811461185357600080fd5b50565b6000813590506118658161183f565b92915050565b60008060408385031215611882576118816116fb565b5b600061189085828601611717565b92505060206118a185828601611856565b9150509250929050565b60008115159050919050565b6118c0816118ab565b82525050565b60006020820190506118db60008301846118b7565b92915050565b6000806000606084860312156118fa576118f96116fb565b5b600061190886828701611717565b935050602061191986828701611717565b925050604061192a86828701611856565b9150509250925092565b600060ff82169050919050565b61194a81611934565b82525050565b60006020820190506119656000830184611941565b92915050565b60008060408385031215611982576119816116fb565b5b600061199085828601611717565b92505060206119a185828601611717565b9150509250929050565b7f4e487b7100000000000000000000000000000000000000000000000000000000600052602260045260246000fd5b600060028204905060018216806119f257607f821691505b602082108103611a0557611a046119ab565b5b50919050565b7f4e487b7100000000000000000000000000000000000000000000000000000000600052601160045260246000fd5b6000611a4582611759565b9150611a5083611759565b9250828201905080821115611a6857611a67611a0b565b5b92915050565b7f496e76616c696420757365722061646472657373000000000000000000000000600082015250565b6000611aa4601483611798565b9150611aaf82611a6e565b602082019050919050565b60006020820190508181036000830152611ad381611a97565b9050919050565b7f5265776172647320706f6f6c206465706c657465640000000000000000000000600082015250565b6000611b10601583611798565b9150611b1b82611ada565b602082019050919050565b60006020820190508181036000830152611b3f81611b03565b9050919050565b7f52657761726420636f6f6c646f776e2061637469766500000000000000000000600082015250565b6000611b7c601683611798565b9150611b8782611b46565b602082019050919050565b60006020820190508181036000830152611bab81611b6f565b9050919050565b7f496e73756666696369656e74207265776172647320696e20706f6f6c00000000600082015250565b6000611be8601c83611798565b9150611bf382611bb2565b602082019050919050565b60006020820190508181036000830152611c1781611bdb565b9050919050565b6000604082019050611c336000830185611763565b611c406020830184611763565b9392505050565b6000611c5282611759565b9150611c5d83611759565b9250828202611c6b81611759565b91508282048414831517611c8257611c81611a0b565b5b5092915050565b6000611c9482611759565b9150611c9f83611759565b9250828203905081811115611cb757611cb6611a0b565b5b92915050565b6000606082019050611cd260008301866116d1565b611cdf6020830185611763565b611cec6040830184611763565b94935050505056fea264697066735822122054f50299d6e9d02855b15123ca31259871dae169993ec4e16bb0fd5602dfdac664736f6c63430008140033",
  "linkReferences": {},
  "deployedLinkReferences": {}
}